:100000000C9480000C94A8000C94A8000C94A800F8
:100010000C94A8000C94A8000C94A8000C94A800C0
:100020000C94A8000C94A8000C94A8000C94A800B0
:100030000C94A8000C94A8000C94A8000C94A800A0
:100040000C9470040C94A8000C943E040C941804B6
:100050000C94A8000C94A8000C94A8000C94A80080
:100060000C94A8000C94A8004E414E494E49545996
:10007000494E46CDCCCC3D0AD7233C17B7D1387773
:10008000CC2B329595E6241FB14F0A000020410089
:1000900000C84200401C4620BCBE4CCA1B0E5AAED3
:1000A000C59D7400000000240027002A0000000005
:1000B0000023002600290000000000250028002B56
:1000C0000004040404040404040202020202020301
:1000D000030303030301020408102040800102040B
:1000E000081020010204081020000000080002018E
:1000F0000000030407000000000000000000D2041C
:1001000011241FBECFEFD8E0DEBFCDBF25E0A2E0B7
:10011000B2E001C01D92A039B207E1F712E0A0E001
:10012000B1E0E6EDF7E202C005900D92A230B10712
:10013000D9F710E0C0E8D0E004C02197FE010E948A
:100140000F10CF37D107C9F70E9403050C94E913AC
:100150000C940000AF92BF92CF92DF92EF92FF9289
:100160000F931F93CF93DF936C017B018B01040FDF
:10017000151FEB015E01AE18BF08C017D10759F07B
:100180006991D601ED91FC910190F081E02DC601BD
:100190000995892B79F7C501DF91CF911F910F91B7
:1001A000FF90EF90DF90CF90BF90AF900895FC014B
:1001B000538D448D252F30E0842F90E0821B930BCC
:1001C000541710F0CF96089501970895FC01918D72
:1001D000828D981761F0A28DAE0FBF2FB11D5D9675
:1001E0008C91928D9F5F9F73928F90E008958FEF17
:1001F0009FEF0895FC01918D828D981731F0828DCB
:10020000E80FF11D858D90E008958FEF9FEF089521
:10021000FC01918D228D892F90E0805C9F4F821B85
:1002200091098F739927089589E192E00E9408014E
:1002300021E0892B09F420E0822F089580E090E0EE
:10024000892B29F00E94140181110C94000008955B
:10025000FC01A48DA80FB92FB11DA35ABF4F2C913B
:10026000848D90E001968F739927848FA689B78932
:100270002C93A089B1898C91837080648C93938D29
:10028000848D981306C00288F389E02D80818F7DCC
:1002900080830895EF92FF920F931F93CF93DF9384
:1002A000EC0181E0888F9B8D8C8D98131AC0E889B2
:1002B000F989808185FF15C09FB7F894EE89FF8981
:1002C0006083E889F98980818370806480839FBF1F
:1002D00081E090E0DF91CF911F910F91FF90EF901F
:1002E0000895F62E0B8D10E00F5F1F4F0F7311272F
:1002F000E02E8C8D8E110CC00FB607FCFACFE8896A
:10030000F989808185FFF5CFCE010E942801F1CFC8
:10031000EB8DEC0FFD2FF11DE35AFF4FF0829FB7DD
:10032000F8940B8FEA89FB8980818062CFCFCF93CD
:10033000DF93EC01888D8823B9F0AA89BB89E8890D
:10034000F9898C9185FD03C0808186FD0DC00FB6B3
:1003500007FCF7CF8C9185FFF2CF808185FFEDCF31
:10036000CE010E942801E9CFDF91CF91089583301B
:1003700081F028F4813099F08230A9F00895873017
:10038000A9F08830C9F08430B1F4809180008F7D6D
:1003900003C0809180008F7780938000089584B59A
:1003A0008F7784BD089584B58F7DFBCF8091B00099
:1003B0008F778093B00008958091B0008F7DF9CF42
:1003C0001F93CF93DF93E2EFF0E09491EEEDF0E036
:1003D000D491EAECF0E0C491CC23B9F0182F992322
:1003E00019F0892F0E94B701EC2FF0E0EE0FFF1FEC
:1003F000E954FF4FA591B4918FB7F894EC91111186
:1004000008C0D095DE23DC938FBFDF91CF911F9181
:100410000895DE2BF8CFE2EFF0E0E491E33029F12C
:1004200050F4E130C1F0E230D9F080389105BCF5EC
:1004300080E00C94E001E73011F1E83041F1E43064
:10044000A1F72091800020622093800090938B0080
:1004500080938A00089594B5906894BD87BD0895EF
:1004600094B5906294BD88BD089520918000206865
:100470002093800090938900809388000895909144
:10048000B00090689093B0008093B300089590916D
:10049000B00090629093B0008093B400089581E022
:1004A000C8CFCF93DF93282F30E0F901E751FF4FFA
:1004B0008491F901EB52FF4FD491F901EF53FF4FB3
:1004C000C491CC23A1F081110E94B701EC2FF0E080
:1004D000EE0FFF1FE355FF4FA591B491EC91ED2373
:1004E00081E090E009F480E0DF91CF91089580E011
:1004F00090E0FACFCF93DF9390E0FC01EB52FF4FF7
:1005000024918F539F4FFC0184918823C9F090E080
:10051000880F991FFC01ED55FF4FA591B491FC0187
:10052000E954FF4FC591D49161110DC09FB7F89464
:100530008C91209582238C938881282328839FBFC8
:10054000DF91CF910895623051F49FB7F8943C91B8
:10055000822F809583238C93E8812E2BEFCF8FB74A
:10056000F894EC912E2B2C938FBFEACF3FB7F894E1
:100570008091070290910802A0910902B0910A02AD
:1005800026B5A89B05C02F3F19F00196A11DB11DEE
:100590003FBFBA2FA92F982F8827BC01CD01620F2A
:1005A000711D811D911D42E0660F771F881F991FE5
:1005B0004A95D1F708958F929F92AF92BF92CF92B2
:1005C000DF92EF92FF926B017C010E94B6024B0119
:1005D0005C01C114D104E104F104B9F00E94B60237
:1005E000681979098A099B09683E7340810591055C
:1005F00080F321E0C21AD108E108F10888EE880EE4
:1006000083E0981EA11CB11CE4CFFF90EF90DF9017
:10061000CF90BF90AF909F908F9008952FB7F89490
:10062000609103027091040280910502909106028C
:100630002FBF08955D9A5C985B985A9867E070E0C8
:1006400080E090E00E94DB025D9A5C9A5B985A9889
:1006500067E070E080E090E00E94DB025D985C9AC9
:100660005B985A9867E070E080E090E00E94DB02BF
:100670005D985C9A5B9A5A9867E070E080E090E041
:100680000E94DB025D985C985B9A5A9867E070E084
:1006900080E090E00E94DB025D985C985B9A5A9A39
:1006A00067E070E080E090E00E94DB025D985C987B
:1006B0005B985A9A67E070E080E090E00E94DB026D
:1006C0005D9A5C985B985A9A67E070E080E090E0F1
:1006D0000C94DB02EF92FF920F931F93CF93DF9363
:1006E000C0918405D0918505C436D1050CF044C075
:1006F0008B017C0184E290E00E941510FC01DE0178
:10070000AA0FBB1FAC50BC4FED93FC93178A168AFF
:10071000F58AE48A81E090E09383828382E090E02E
:1007200095838483118F008F168E178E10A211A2CD
:1007300084E690E0A0E0B0E084879587A687B7873D
:10074000168217821086118613A212A28FEF9FEFD6
:1007500091838083CE0101969093850580938405D3
:100760001092890510928805CE01DF91CF911F91DB
:100770000F91FF90EF900895CFEFDFEFF5CFFB01E2
:1007800001900020E9F73197AF01461B570BDC01C0
:10079000ED91FC910280F381E02D099460E573E016
:1007A0008091B6029091B7020E94BF03E0E5F3E0AA
:1007B00001900020E9F7E159F34041F46EE171E066
:1007C0008091B6029091B7020C94BF03089577FD13
:1007D0001EC01F922EE32F937F936F939F938F934F
:1007E0001F928CE38F9380E291E09F938F9380E53B
:1007F00093E09F938F930E9448118DB79EB70C96FC
:100800000FB6F8949EBF0FBE8DBF0C94CE03089513
:100810001F93CF93DF93C6EBD2E01F811F828AEB39
:1008200092E00E94F90B1F83DF91CF911F910895F1
:100830001F920F920FB60F9211242F933F934F9355
:100840005F936F937F938F939F93AF93BF93EF9338
:10085000FF9389E192E00E942801FF91EF91BF91FF
:10086000AF919F918F917F916F915F914F913F9148
:100870002F910F900FBE0F901F9018951F920F92FF
:100880000FB60F9211242F938F939F93EF93FF93A3
:10089000E0912902F0912A028081E0912F02F091EB
:1008A000300282FD1BC09081809132028F5F8F7376
:1008B00020913302821741F0E0913202F0E0E75ECE
:1008C000FD4F958F80933202FF91EF919F918F9111
:1008D0002F910F900FBE0F901F9018958081F4CF2D
:1008E0001F920F920FB60F9211242F933F938F9365
:1008F0009F93AF93BF938091030290910402A091C4
:100900000502B09106023091020223E0230F2D3739
:1009100058F50196A11DB11D209302028093030298
:1009200090930402A0930502B093060280910702FF
:1009300090910802A0910902B0910A020196A11DAE
:10094000B11D8093070290930802A0930902B0930F
:100950000A02BF91AF919F918F913F912F910F907C
:100960000FBE0F901F90189526E8230F0296A11D29
:10097000B11DD2CFFB0105900020E9F7609570957D
:100980006E0F7F1FCB010895FA01DC01215030402A
:1009900030F08D910590801919F40020B9F7881B6B
:1009A000990B0895E9E1F2E01382128280E191E06F
:1009B0009183808385EC90E09587848784EC90E038
:1009C0009787868780EC90E0918B808B81EC90E01C
:1009D000938B828B82EC90E0958B848B86EC90E0FD
:1009E000978B868B118E128E138E148EF093B70216
:1009F000E093B60284EF91E0A0E0B0E084839583B9
:100A0000A683B7830895789484B5826084BD84B545
:100A1000816084BD85B5826085BD85B5816085BDF9
:100A200080916E00816080936E00109281008091B1
:100A30008100826080938100809181008160809339
:100A40008100809180008160809380008091B1005E
:100A500084608093B1008091B00081608093B00089
:100A600080917A00846080937A0080917A0082601D
:100A700080937A0080917A00816080937A008091DF
:100A80007A00806880937A001092C10061E08DE066
:100A90000E947A0261E085E00E947A0261E084E0CF
:100AA0000E947A0261E083E00E947A0261E082E0C3
:100AB0000E947A0262E086E00E947A0260E08EE0A4
:100AC0000E947A0262E087E00E947A0262E088E097
:100AD0000E947A0261E089E00E947A0261E089E086
:100AE0000E947A0288EC90E00E940B02E0912902B9
:100AF000F0912A0282E08083E0912502F0912602A3
:100B00001082E0912702F091280280E18083109208
:100B10003102E0912D02F0912E0286E08083E09177
:100B20002B02F0912C02808180618083E0912B0266
:100B3000F0912C02808188608083E0912B02F091FB
:100B40002C02808180688083E0912B02F0912C023E
:100B500080818F7D80838CE291E09093F30380937A
:100B6000F2031092E9031092E803109285051092A7
:100B700084051092870510928605109289051092BF
:100B800088051092B80265E172E087E391E00E9467
:100B90006A036BE072E086E691E00E946A03C0E5BA
:100BA000D3E08091B6029091B702DC01ED91FC9107
:100BB0000084F185E02D09952091B802892B81F000
:100BC0002C3381F08091B6029091B702DC01ED9157
:100BD000FC910284F385E02D09958093B802E1CF62
:100BE0002C33C9F5E090B602F090B702B9EBCB2EEA
:100BF000B2E0DB2E10E000E00E940E03F7016087F8
:100C0000718782879387D701ED91FC910284F385E8
:100C1000E02DC701099597FFB8C50E940E03F701A3
:100C200080849184A284B384681979098A099B0914
:100C300084809580A680B780681579058A059B0514
:100C400010F310934F0300934E030115110509F0A3
:100C500072C01092B8028091880590918905892B05
:100C600009F47DC486EB282E82E0382EF12CE12C8D
:100C70009EE3B92E25E6A22E3CE3932E4DE2842E70
:100C80008091840590918505E816F9060CF4FEC262
:100C90000CEB14E0F12CE12C8091860590918705F6
:100CA000E816F9060CF05BC4D801ED91FC91808147
:100CB000918197FD3AC00E940E03D801ED91FC91FD
:100CC00086809780A084B184681979098A099B0974
:100CD0006D3271408105910540F18685978597FDBC
:100CE00012C40E9451026C01D801ED91FC918485DF
:100CF0009585C816D906C9F060817181B1E0CB161F
:100D0000D10409F0FBC38AE690E00E94E7030E9449
:100D10000E03D801ED91FC916683778380879187DC
:100D2000D801ED91FC91D586C486BFEFEB1AFB0A82
:100D30000E5F1F4FB1CFF801EA54FD4F2EE323831E
:100D40000E5F1F4F10934F0300934E030A541D4F25
:100D5000F80112828091B902813609F44FC074F40F
:100D6000833309F49AC0843309F4EDC0823309F067
:100D700070CF1092E9031092E8036BCF853609F427
:100D80000CC2863611F1843609F063CFE4EFF3E04C
:100D900090E080E0209184053091850582179307CB
:100DA0000CF057CFA191B19112962D913C911397D0
:100DB000225031092230310530F421E030E01B9619
:100DC0003C932E931A970196E5CF2091840530919C
:100DD0008505E4EFF3E090E080E0821793070CF0E4
:100DE00085C18436910509F481C101911191D80121
:100DF0004D915C9157FDFDC00196EFCF8091F203BC
:100E00009091F3030097E1F01F922F939F938F939C
:100E10001F9280E38F931F928CE38F932DE831E034
:100E20003F932F93DF93CF930E9448110E94CE03EC
:100E3000ADB7BEB71C960FB6F894BEBF0FBEADBF20
:100E4000E1E0F0E0F093E903E093E803E4EFF3E09E
:100E500090E080E02091840530918505821793070A
:100E6000A4F0ECEBF4E090E080E020918605309176
:100E70008705821793070CF0ECCEA191B1914FEF4B
:100E80005FEF4D935C930196F0CFA191B1912FEF5D
:100E90003FEF2D933C930196DDCF10E000E0809171
:100EA000840590918505081719070CF0D2CEF8013A
:100EB000EE0FFF1FEC50FC4FE080F180D7015496FD
:100EC0006D917C9161157105F9F0FB010190002095
:100ED000E9F73197AF01461B570B8DEB92E00E946B
:100EE0003A11892B71F4F70180819181019649F4BF
:100EF0000E940804D7018D939C9300918405109162
:100F000085050F5F1F4FCBCFF70186889788092C87
:100F1000000CAA08BB08C501B4010E94BA049C01D8
:100F2000B501A4018DEB92E00E94C404892B49F71E
:100F3000D7018D919C91019621F70E940804F70139
:100F400091838083DACF10E000E080918605909154
:100F50008705081719070CF07CCEF801EE0FFF1F6C
:100F6000E454FB4FE080F180D70112966D917C91A3
:100F700061157105F9F0FB0101900020E9F7319747
:100F8000AF01461B570B8DEB92E00E943A11892B63
:100F900071F4F70180819181019649F40E9408045F
:100FA000D7018D939C9300918605109187050F5F63
:100FB0001F4FCBCFF70184809580092C000CAA0825
:100FC000BB08C501B4010E94BA049C01B501A4018B
:100FD0008DEB92E00E94C404892B49F7D7018D91D3
:100FE0009C91019621F70E940804F7019183808368
:100FF000DACFF801E488F58886809780A084B184F0
:1010000020E030E048EC52E4C501B4010E94320E09
:101010000E94B10FCB0164E670E00E94E70FD82E6A
:10102000C92EC501B4010E94B10FD80192962C912E
:10103000929793963C91939712968C911297139650
:101040009C911397E114F10439F11F924EE34F93F1
:10105000FF92EF92CF92DF927F936F933F932F9304
:101060009F938F931F9282E68F931F928CE38F93AF
:1010700086E991E09F938F93DF93CF930E9448116D
:101080002DB73EB72C5E3F4F0FB6F8943EBF0FBE54
:101090002DBF0E94CE03DDCD1F924EE34F93579696
:1010A0004C9157974F9356964C914F93CF92DF9216
:1010B0007F936F933F932F939F938F931F9282E61B
:1010C0008F931F928CE38F9382EB91E09F938F938A
:1010D000DF93CF930E9448112DB73EB72C5E3F4F50
:1010E0000FB6F8943EBF0FBE2DBFD3CFACEBB4E02C
:1010F00090E080E020918605309187058217930764
:101100000CF051C38436910509F44DC3ED91FD9166
:101110002081318137FD02C00196ECCF828193811D
:101120000097E1F01F922EE32F939F938F931F92CE
:101130008DE68F931F928CE38F934DE851E05F9380
:101140004F93DF93CF930E944811EDB7FEB73C96C3
:101150000FB6F894FEBF0FBEEDBF9BCF1F928EE37C
:101160008F9385818F9384818F931F928DE68F93C8
:101170001F928CE38F938EEC91E09F938F93DF937C
:10118000CF930E9448114DB75EB7445F5F4F0FB6D3
:10119000F8945EBF0FBE4DBF7CCF0E9408047C0157
:1011A00090E080E0209184053091850582179307B7
:1011B0000CF04FCD8C0101561F4F9801220F331FA9
:1011C000D901AA54BD4F5D01ED91FC91208131817F
:1011D000E216F30609F058C0228133812D7F2130B9
:1011E000310509F051C0848195810197F9F4C08CD3
:1011F000D18C9090C7021092C7028DEB92E00E94B2
:10120000170CF60160837183828393839092C702E7
:10121000D501ED91FC91A08DB18D8D919D910D9099
:10122000BC91A02D828F938FA48FB58F000F111FBB
:101230000A541D4FD801ED91FC918481958102974C
:10124000F9F4C08CD18CB090C7021092C7028DEB1C
:1012500092E00E94F50BF601608371838283938391
:10126000B092C702D801ED91FC91A08DB18D8D9106
:101270009D910D90BC91A02D868F978FA0A3B1A3B7
:10128000809184059091850501968CCF8101025C47
:101290001E4FF801A081B1818D919C91119797FD0E
:1012A00011C012968D919C9113970297029750F45A
:1012B00014968D919C9115978130910551F002976C
:1012C00009F486C0BFEFEB1AFB0AE2E02E0E311CD8
:1012D000D7CC5896ED91FC9159974081518162810C
:1012E00073815A968D919D910D90BC91A02D4817B8
:1012F00059076A077B0731F30E940E03D801ED916D
:10130000FC914088518862887388AB01BC01441904
:1013100055096609770984859585A685B78521E0F5
:10132000892B8A2B8B2B29F482859385892B09F4B1
:1013300020E0822F90E0B0E0A0E084179507A60798
:10134000B70708F0BFCF8081918197FD21C01F9220
:10135000BF92008CF18DE02D21812F9320812F935E
:101360009F938F931F92AF921F929F92E7EDF1E0B0
:10137000FF93EF93DF93CF930E9448110E94CE0317
:101380008DB79EB70E960FB6F8949EBF0FBE8DBF59
:10139000D801ED91FC91A08DB18D8D919D910D9015
:1013A000BC91A02D828F938FA48FB58FF801C08040
:1013B000D1800E940E03D60150966D937D938D933C
:1013C0009C935397D801ED91FC91138612867ACFA6
:1013D0005896ED91FC9159975E962D913D914D91C6
:1013E0005C91919760817181828193810E94CC0D83
:1013F00081116CC0D801ED91FC9182859385892B78
:1014000009F460CFD801ED91FC91C080D180D7FC68
:101410004EC0008CF18DE02D408051806280738041
:101420001F92BF9220E030E048EC52E4C301B201C9
:101430000E94320E0E94B10FCB0164E670E00E9460
:10144000E70F97FF03C09195819591099F938F9323
:10145000C301B2010E94B10F9B0177FF04C0222794
:101460003327261B370B3F932F93DF92CF921F9288
:10147000AF921F929F92E5EEF1E0FF93EF93DF931F
:10148000CF930E9448118DB79EB740960FB6F8943F
:101490009EBF0FBE8DBF20E030E0A901C301B201A5
:1014A0000E94CC0D87FD809255030E94CE03D80187
:1014B000ED91FC91A08DB18D8D919D910D90BC9180
:1014C000A02D868F978FA0A3B1A370CF0E940E038B
:1014D000D801ED91FC914088518862887388641925
:1014E000750986099709448455846684778446166D
:1014F00057066806790608F07DCF84CF89E690E02C
:101500000E94E7030DCCA285B385109709F40DCC9A
:101510008D919C91248535858217930709F405CC1C
:101520006081718118161906BCF48AE690E00E9469
:10153000E703D801ED91FC91A285B3858D919C9133
:10154000958784870E940E03D801ED91FC916683F4
:10155000778380879187E9CB89E690E0E8CF809117
:10156000880590918905892B09F4E3C020E030E0DB
:1015700042EC53E4609115027091160280911702BB
:10158000909118020E94320E0E94B10F6B0170936D
:101590001402609313028091040190910501892B3C
:1015A00061F00E941A0386E00E945102892B99F78C
:1015B0001092050110920401EECF80900F029090DE
:1015C0001002A0901102B09012020D2C000CEE0837
:1015D000FF08D501C4018C199D09AE09BF09B7FFE9
:1015E000B5C05A9A5B985C985D9867E070E080E0BF
:1015F00090E00E94DB025A9A5B9A5C985D9867E0E3
:1016000070E080E090E00E94DB025A985B9A5C9860
:101610005D9867E070E080E090E00E94DB025A98FD
:101620005B9A5C9A5D9867E070E080E090E00E94D1
:10163000DB025A985B985C9A5D9867E070E080E006
:1016400090E00E94DB025A985B985C9A5D9A67E092
:1016500070E080E090E00E94DB025A985B985C9812
:101660005D9A67E070E080E090E00E94DB025A9AA9
:101670005B985C985D9A67E070E080E090E00E9483
:10168000DB0280910F0290911002A0911102B091A3
:1016900012020196A11DB11D80930F0290931002BA
:1016A000A0931102B0931202C0900B02D0900C02D2
:1016B000E0900D02F0900E02A701960160910001EA
:1016C0007091010180910201909103010E94CC0D63
:1016D000882379F120E030E04FE753E4C701B601F9
:1016E0000E94320E20E030E0A9010E94450F0E94C6
:1016F000B10F6B018B0161E089E00E947A0280E00A
:10170000C114D10421F00F3F1105D9F581E00E94E9
:10171000E00180910B0290910C02A0910D02B0911A
:101720000E028093000190930101A0930201B093F7
:10173000030180E090E0892B09F433CA0E94140170
:10174000882309F42ECA0E9400002BCAC818D908A1
:10175000EA08FB08F7FE10C00E941A03E1E08E1AA7
:101760009108A108B10880920F0290921002A092F5
:101770001102B092120298CF5A985B985C985D98CB
:1017800093CFC6010E940B02C4CF8E33910509F49A
:1017900058CAD6018D936D010F5F1F4F0539110592
:1017A00009F02ACA4ECA21E030E03093890520931F
:1017B00088051F928EE38F931F9283E68F931F926B
:1017C0008CE38F934AEF51E05F934F93DF93CF9376
:1017D0000E9448110E94CE03EDB7FEB73A960FB6AD
:1017E000F894FEBF0FBEEDBF34CA662777270C946E
:1017F0005B0CFC0188279927E89421912032E9F3BA
:10180000293010F02E30C8F32B3241F02D3239F44C
:10181000689404C00E94530C820F911D21912053A3
:101820002A30C0F31EF4909581959F4F08951F9321
:10183000FC0199278827BC01E89411911032E9F343
:10184000193010F01E30C8F31B3251F01D3249F42C
:10185000689406C00E943E0C610F711D811D911D90
:10186000119110531A30B0F33EF490958095709515
:1018700061957F4F8F4F9F4F1F910895592F482F8C
:10188000372F262F660F771F881F991F660F771F28
:10189000881F991F620F731F841F951F660F771F84
:1018A000881F991F08957AE0979F902D879F802D1C
:1018B000910D11240895B0E0A0E0E1E6FCE00C9465
:1018C000040F5C017B016115710519F0DB018D933B
:1018D0009C9385010F5F1F4FF501D0818D2F90E004
:1018E0000E94AB0D6C01892BB9F5DD32B9F50F5FA4
:1018F0001F4FD5011196DC91C1E05801F1E0AF1AFC
:10190000B10843E050E060E770E0C5010E94B40D0B
:10191000892B69F5680182E0C80ED11C45E050E0D2
:101920006BE670E0C6010E94B40D892B21F46801BA
:1019300097E0C90ED11CE114F10419F0D701CD9242
:10194000DC9260E070E080E89FEFC111FFC060E0D2
:1019500070E080E89FE7FAC05801BBCFDB3229F482
:1019600085010E5F1F4FF501D181C0E0C6CF43E076
:1019700050E068E670E0C5010E94B40D892BE9F0E3
:10198000F80110E000E020E030E0A9015F01B0EDD7
:101990008B2E8D0E89E08815C8F19C2E689491F8E5
:1019A0008C2F8870C2FF16C0811102C00F5F1F4FBD
:1019B0003196D501DC91C92DE9CFE114F10429F06C
:1019C0000E5F1F4FF7011183008360E070E080EC31
:1019D0009FE7BCC0882311F001501109A5E0B0E0D9
:1019E0000E94F30E9B01AC01220F331F441F551FB1
:1019F000280D311D411D511D283999E93907490725
:101A000099E15907A8F2C6609C2ED2CFAEEF8A1298
:101A100006C0C3FD3CC09C2E689493F8C9CFDF7DFF
:101A2000D534A9F580818D3239F4C061DF01129679
:101A3000818162E070E006C0DF018B32C1F3119654
:101A400061E070E080535D01A61AB70A8A30F8F4AD
:101A5000E0E8CE16ECE0DE065CF4B601660F771F18
:101A6000660F771FC60ED71ECC0CDD1CC80ED11C0E
:101A70005D01FFEFAF1ABF0A8C9180538A30A8F145
:101A8000C4FF03C0D194C194D1080C0D1D1DC1FF2A
:101A900009C0E114F10431F081E0A81AB108D701BE
:101AA000AD92BC92CA01B9010E94D10DC370C3307E
:101AB00009F490584B015C0120E030E0A9010E943C
:101AC000CC0D882309F440C0CFE9D0E017FF05C052
:101AD000119501951109C7E8D0E06E01B8E1CB1A64
:101AE000D10880E2E82EF12C0FC0D501B1CFFE0164
:101AF00025913591459154910E191F09C501B401E5
:101B00000E94320E4B015C01D501C4010E151F0568
:101B100074F72497F594E794CC16DD06A9F78A2F7D
:101B2000880F8B2F881F8F3F49F020E030E0A901FC
:101B3000C501B4010E94CC0D811106C082E290E083
:101B400090938B0580938A05C501B401CDB7DEB7AC
:101B5000ECE00C94200F91110C949F0E803219F040
:101B600089508550C8F70895FB01DC014150504071
:101B700088F08D9181341CF08B350CF4805E65917A
:101B800061341CF06B350CF4605E861B611171F3DF
:101B9000990B0895881BFCCF0E940E0E08F481E07B
:101BA0000895E89409C097FB3EF490958095709550
:101BB00061957F4F8F4F9F4F9923A9F0F92F96E999
:101BC000BB279395F695879577956795B795F1110E
:101BD000F8CFFAF4BB0F11F460FF1BC06F5F7F4FAB
:101BE0008F4F9F4F16C0882311F096E911C07723BD
:101BF00021F09EE8872F762F05C0662371F096E8C6
:101C0000862F70E060E02AF09A95660F771F881F94
:101C1000DAF7880F9695879597F90895990F000838
:101C2000550FAA0BE0E8FEEF16161706E807F907AE
:101C3000C0F012161306E407F50798F0621B730B49
:101C4000840B950B39F40A2661F0232B242B252BCA
:101C500021F408950A2609F4A140A6958FEF811D6D
:101C6000811D08950E94450E0C94B90E0E94AB0E82
:101C700038F00E94B20E20F0952311F00C94A20EC1
:101C80000C94A80E11240C94ED0E0E94CA0E70F351
:101C9000959FC1F3950F50E0551F629FF001729F11
:101CA000BB27F00DB11D639FAA27F00DB11DAA1F20
:101CB000649F6627B00DA11D661F829F2227B00D6D
:101CC000A11D621F739FB00DA11D621F839FA00DF8
:101CD000611D221F749F3327A00D611D231F849F48
:101CE000600D211D822F762F6A2F11249F5750409F
:101CF0009AF0F1F088234AF0EE0FFF1FBB1F661F1A
:101D0000771F881F91505040A9F79E3F510580F0E2
:101D10000C94A20E0C94ED0E5F3FE4F3983ED4F3C6
:101D2000869577956795B795F795E7959F5FC1F786
:101D3000FE2B880F911D9695879597F90895992701
:101D40008827089597F99F6780E870E060E008951C
:101D50009FEF80EC089500240A94161617061806C3
:101D60000906089500240A9412161306140605069F
:101D70000895092E0394000C11F4882352F0BB0F30
:101D800040F4BF2B11F460FF04C06F5F7F4F8F4F93
:101D90009F4F089557FD9058440F551F59F05F3FCE
:101DA00071F04795880F97FB991F61F09F3F79F07D
:101DB00087950895121613061406551FF2CF4695FF
:101DC000F1DF08C0161617061806991FF1CF869581
:101DD0007105610508940895E894BB276627772765
:101DE000CB0197F908950E94350FA59F900DB49FE0
:101DF000900DA49F800D911D112408952F923F9264
:101E00004F925F926F927F928F929F92AF92BF920A
:101E1000CF92DF92EF92FF920F931F93CF93DF93B6
:101E2000CDB7DEB7CA1BDB0B0FB6F894DEBF0FBE13
:101E3000CDBF09942A88398848885F846E847D8460
:101E40008C849B84AA84B984C884DF80EE80FD8062
:101E50000C811B81AA81B981CE0FD11D0FB6F894D8
:101E6000DEBF0FBECDBFED010895A29FB001B39FAD
:101E7000C001A39F700D811D1124911DB29F700D93
:101E8000811D1124911D08955058BB27AA270E9437
:101E90005C0F0C94B90E0E94AB0E38F00E94B20E8B
:101EA00020F039F49F3F19F426F40C94A80E0EF498
:101EB000E095E7FB0C94A20EE92F0E94CA0E58F39E
:101EC000BA17620773078407950720F079F4A6F51F
:101ED0000C94EC0E0EF4E0950B2EBA2FA02D0B01F6
:101EE000B90190010C01CA01A0011124FF27591B5F
:101EF00099F0593F50F4503E68F11A16F040A22F65
:101F0000232F342F4427585FF3CF469537952795D5
:101F1000A795F0405395C9F77EF41F16BA0B620BD4
:101F2000730B840BBAF09150A1F0FF0FBB1F661F1B
:101F3000771F881FC2F70EC0BA0F621F731F841F5E
:101F400048F4879577956795B795F7959E3F08F084
:101F5000B0CF9395880F08F09927EE0F9795879546
:101F600008950E94B80F6894B1110C94ED0E089575
:101F70000E94D20E88F09F5798F0B92F9927B75139
:101F8000B0F0E1F0660F771F881F991F1AF0BA951D
:101F9000C9F714C0B13091F00E94EC0EB1E0089581
:101FA0000C94EC0E672F782F8827B85F39F0B93F73
:101FB000CCF3869577956795B395D9F73EF49095D0
:101FC0008095709561957F4F8F4F9F4F089597FB38
:101FD000072E16F4009407D077FD09D00E94FB0F5E
:101FE00007FC05D03EF4909581959F4F089570951C
:101FF00061957F4F0895AA1BBB1B51E107C0AA1F23
:10200000BB1FA617B70710F0A61BB70B881F991F99
:102010005A95A9F780959095BC01CD010895EE0FD2
:10202000FF1F0590F491E02D09940F931F93CF9318
:10203000DF938230910510F482E090E0E0918E050C
:10204000F0918F0530E020E0B0E0A0E0309799F407
:102050002115310509F44AC0281B390B24303105FC
:10206000D8F58A819B816115710589F1FB01938304
:102070008283FE0111C04081518102811381481782
:102080005907E0F04817590799F4109761F0129634
:102090000C93129713961C933296CF01DF91CF9138
:1020A0001F910F91089500938E0510938F05F4CF23
:1020B0002115310551F04217530738F0A901DB0112
:1020C0009A01BD01DF01F801C1CFEF01F9CF909373
:1020D0008F0580938E05CDCFFE01E20FF31F819314
:1020E00091932250310939832883D7CF20918C05D1
:1020F00030918D05232B41F4209108013091090185
:1021000030938D0520938C052091060130910701B5
:102110002115310541F42DB73EB740910A01509188
:102120000B01241B350BE0918C05F0918D05E21716
:10213000F307A0F42E1B3F0B2817390778F0AC01EA
:102140004E5F5F4F2417350748F04E0F5F1F5093C7
:102150008D0540938C05819391939FCFF0E0E0E053
:102160009CCFCF93DF930097E9F0FC013297138265
:102170001282A0918E05B0918F05ED0130E020E034
:102180001097A1F420813181820F931F20918C053B
:1021900030918D052817390709F061C0F0938D053E
:1021A000E0938C05DF91CF910895EA01CE17DF0708
:1021B000E8F54A815B819E0141155105B1F7E901BE
:1021C000FB83EA8349915991C40FD51FEC17FD0792
:1021D00061F4808191810296840F951FE9019983B2
:1021E0008883828193819B838A83F0E0E0E012966A
:1021F0008D919C9113970097B9F52D913C91119772
:10220000CD010296820F931F20918C0530918D0590
:102210002817390739F6309751F510928F0510922B
:102220008E05B0938D05A0938C05BCCFD383C2835C
:1022300040815181840F951FC817D90761F44E5F03
:102240005F4F88819981480F591F518340838A814C
:102250009B81938382832115310509F0B0CFF093E0
:102260008F05E0938E059ECFFD01DC01C0CF138268
:102270001282D7CFFB01DC014150504030F08D91EC
:102280000190801919F40020B9F7881B990B089563
:10229000AEE0B0E0EEE4F1E10C940C0F0D891E8984
:1022A00086E08C831A8309838FEF9FE79E838D835B
:1022B000AE01475E5F4F6F89788DCE0101960E9417
:1022C0006B112F813885020F131FF80110822E9693
:1022D000E4E00C94280FABE0B0E0E1E7F1E10C940E
:1022E000FE0E7C013B018A01FC011782168283816C
:1022F00081FFC8C1CE0101965C01F7019381F30112
:1023000093FD859193FF81913F01882309F453C187
:10231000853239F493FD859193FF81913F01853298
:1023200029F4B70190E00E945B13E7CF912C212C98
:10233000312CFFE1F31538F08B3211F190F480323B
:1023400009F1833229F137FC3CC020ED280F2A30F7
:1023500050F536FE20C08AE0989E200D1124922E62
:1023600006C08D3291F0803371F7689430F8F30134
:1023700093FD859193FF81913F018111DACF21C0B7
:10238000689431F8689432F8F2CF689433F8EFCF5C
:10239000689434F8ECCFEAE02E9E200D1124222E12
:1023A000689435F8E4CF8E3229F436FC04C1689481
:1023B00036F8DDCF8C3619F4689437F8D8CF8836E4
:1023C000B1F2982F9F7D95549330E0F08336A1F1C0
:1023D0008337C1F1833509F063C02801F2E04F0E65
:1023E000511CF801C080D180692D70E036FC02C01C
:1023F0006FEF7FEFC6010E9445134C01689437F8D8
:1024000082010AC00C5F1F4FFFE3F9838824839485
:10241000912C6501E89437F833FE2DC0522C8114BD
:10242000910471F5552009F468CFB70180E290E07E
:102430000E945B135A94F6CFF801808189830E5F66
:102440001F4FE4CF2801F2E04F0E511CF801C0806D
:10245000D180692D70E036FC02C06FEF7FEFC601BE
:102460000E9450134C018201D5CFB70180E290E069
:102470000E945B132A942814190409F0B0F7CECFF8
:10248000F60137FC859137FE81916F01B70190E02D
:102490000E945B1351105A94F1E08F1A9108BFCF3C
:1024A000843619F0893609F077C0F80137FE6BC021
:1024B00060817181828193810C5F1F4FF32DFF76C4
:1024C0003F2E97FF09C090958095709561957F4F3D
:1024D0008F4F9F4F689437F82AE030E0A5010E94A3
:1024E0008B13C82ECA188C2C432C36FE0CC0E894D3
:1024F00040F8C91440F434FE05C032FC03C0F32D8B
:10250000FE7E4F2E892C44FE95C0FE01EC0DF11D80
:102510008081803309F087C0242D297E422E842DAE
:102520008870582E43FC95C040FE8FC09C2C8214AE
:1025300018F42C0C922C981844FE91C0B70180E33B
:1025400090E00E945B1342FE09C088E790E041FEE4
:1025500002C088E590E0B7010E945B13C91408F43B
:102560008AC0CA94D12C9FEFC91AD90ACA0CDB1CA5
:10257000F60182916F01B70190E00E945B13AC14E9
:10258000BD04B1F74FCF60817181072E000C880B1D
:10259000990B0E5F1F4F92CFD32CE894D4F82AE00A
:1025A00030E0853739F1232D297FD22E8F3601F186
:1025B00048F48835A9F0F701868197812B96E2E1EE
:1025C0000C941A0F803749F08837A9F7D4FE02C05F
:1025D0006894D2F820E130E00DC06894D4F8F6CFCA
:1025E00034FE03C0822F8660D82E20E132E002C084
:1025F00028E030E0F801D7FE0FC060817181828150
:1026000093810C5F1F4FA5010E948B13C82ECA181F
:102610003D2CE89437F867CF6081718190E080E0CD
:102620000E5F1F4FF0CF42FC02C0839478CF83949B
:10263000839475CF842D867809F471CFF6CFB701D6
:1026400080E290E00E945B1383948214C0F3512CCB
:1026500073CF522C5818821408F46ECFF8CF842D03
:10266000867809F47BCF8BE241FE80E247FC8DE265
:10267000B70190E071CFB70180E390E00E945B1357
:102680009A946CCF8FEF9FEF99CFFC01059061502A
:1026900070400110D8F7809590958E0F9F1F089578
:1026A000FC016150704001900110D8F78095909521
:1026B0008E0F9F1F08950F931F93CF93DF93182FB3
:1026C000092FEB018B8181FD09C01FEF0FEF812FD7
:1026D000902FDF91CF911F910F91089582FF14C029
:1026E0002E813F818C819D81281739073CF4E88138
:1026F000F981CF0101969983888310838E819F8110
:1027000001969F838E83E3CFE885F985812F099514
:10271000892BA1F3DACFFA01AA27283051F1203111
:1027200081F1E8946F936E7F6E5F7F4F8F4F9F4F65
:10273000AF4FB1E03ED0B4E03CD0670F781F891FA7
:102740009A1FA11D680F791F8A1F911DA11D6A0F75
:10275000711D811D911DA11D20D009F468943F9128
:102760002AE0269F11243019305D3193DEF6CF0127
:102770000895462F4770405D4193B3E00FD0C9F7ED
:10278000F6CF462F4F70405D4A3318F0495D31FD5A
:102790004052419302D0A9F7EACFB4E0A6959795AD
:1027A000879577956795BA95C9F700976105710583
:1027B00008959B01AC010A2E0694579547953795CD
:1027C0002795BA95C9F7620F731F841F951FA01D27
:0627D0000895F894FFCF0C
:1027D600000080BFFFFF00009005800000000000A1
:1027E6004A01AA00D70097010801E600FA00200076
:1027F6002563256325332E3369256300466C617096
:102806002047617567650073696D2F636F636B7031
:102816006974322F636F6E74726F6C732F666C619E
:10282600705F68616E646C655F6465706C6F795F1C
:10283600726174696F006C616D696E61722F4237E7
:1028460033382F656C6563747269632F70616E65CA
:102856006C5F6272696768746E65737300256325C1
:102866006325732563002563256325312E3169258C
:10287600322E3269253035692E2530326925732589
:1028860063002563256325312E316925322E326991
:10289600253035692E253032692553256300256399
:1028A600256325532563002563256325332E336968
:1028B60025692563002563256325332E3369253075
:1028C60037692E2530326925630025632563256324
:0228D600000000
:00000001FF
